:020000040000FA
:060000000A128A11D32F41
:10000A0012340234730872047104700403190E283E
:10001A000F2811288030F3060800031083120313F7
:10002A005C0D5D0DDE005E08E4006408031D1E28F9
:10003A001F2828280030DD000030DC000030DB00FB
:10004A000030DA008D285A08DE005B08DF005C0801
:10005A00E0005D08E1001F300310E10CE00CDF0C4A
:10006A00DE0CFF3E031D31285E08E2006208E30051
:10007A00DC17FF30DA05FF30DB05FF30DC05003026
:10008A00DD059630E402E41F4B284C2866286408F4
:10009A00803A973E03185228532854281F280130C3
:1000AA000310DD0CDC0CDB0CDA0CFF3E031D5528BB
:1000BA000130DE005E08E407031D64286528542821
:1000CA007D2820306402031C6B286C2878281F289E
:1000DA000130DE000310DA0DDB0DDC0DDD0DDE0B69
:1000EA006F280130E4026408031D7C287D286D28EE
:1000FA0063080319812882288D28DA09DB09DC09BB
:10010A00DD09DA0A0319DB0A0319DC0A0319DD0A15
:10011A0008000A168A156E230A128A110A168A1507
:10012A0008230A128A110A168A158B230A128A11BF
:10013A000A168A1520230A128A119130F10080309A
:10014A00F2000A168A15CF230A128A110A128A1590
:10015A00D2200A128A11B130F3008030F4000A1654
:10016A008A151C240A128A11033083160313CD0040
:10017A008A30CC005530CB00CB0BC128CC0BC12820
:10018A00CD0BC128F30100300A168A1547240A123A
:10019A008A110A168A15F4220A128A11831603137F
:1001AA00CB00CC014B08E6004C08E700313066066C
:1001BA006704031DE128E228E628FF3083120313AF
:1001CA00860030308316031366066704031DEE2883
:1001DA00EF28F22883120313860183121F19F628C7
:1001EA00F728CE281F151E0883160313CB00CC014F
:1001FA004B08CC00CB011E084B07F0000030031857
:10020A0001304C07F100F201F11BF2037208F3000E
:10021A0001300A168A1546270A128A1173088316AC
:10022A000313EB007208EA007108E9007008E8009D
:10023A00423083120313B000C830AF000030AE0062
:10024A000030AD004430F3007F30F200C030F100DE
:10025A000030F000831603136B08F7006A08F600F3
:10026A006908F5006808F4000A168A118A210A1238
:10027A008A11730883120313B4007208B300710859
:10028A00B2007008B1000A128A159F240A128A1154
:10029A0083120313300883160313EB00831203132C
:1002AA002F0883160313EA00831203132E088316FA
:1002BA000313E900831203132D0883160313E800BE
:1002CA00BB30CB004B08A8006B08AC006A08AB0037
:1002DA006908AA006808A900CE300A128A11992171
:1002EA000A128A11F30100300A168A1547240A12E3
:1002FA008A11CE30F1000030F2000A168A15CF2397
:10030A000A128A110A128A15D2200A128A11CE30CA
:10031A00F3000030F4000A168A151C240A128A1106
:10032A00CE280A128A11002883160313C300A930A3
:10033A00AD002D08B600BC2F25304A060319A629A0
:10034A00A729B3294A08AD00430884002D0883135E
:10035A0080000130AD002D08C307BC2FB701B801DA
:10036A00280884000A128A150A200A128A112E3ACB
:10037A00031DC029C129062A38170130AD002D08EE
:10038A00A807C401C501F5290A30F0000030F100C0
:10039A00831603134508F3004408F2000A168A1567
:1003AA00AA230A128A11710883160313C50070085A
:1003BA00C400280884000A128A150A200A128A111F
:1003CA00D03EAD00FF3003180030AE002D08C40740
:1003DA000318C50A2E08C5070130AD002D08A80765
:1003EA00280884000A128A150A200A128A110A1693
:1003FA008A15CF220A128A110318042A052AC92942
:10040A000C2AC401C50138160C2A3815282A0130CD
:10041A0083160313A807FF30280784000A128A15D7
:10042A000A200A128A11CA00AD00AE012E08003A4B
:10043A000319202ABC2F2D08003A0319CE2F663A39
:10044A0003190A2ABC2F00303705AD0007303805DA
:10045A00AE002D082E040319332A342A772F381EAA
:10046A00372A382A3C2A0630C4000030C50036082C
:10047A00840083130008C600840A0008C700840A9F
:10048A000008C800840A0008C9000430AD002D081D
:10049A00B6074908F3004808F2004708F100460881
:1004AA00F0000030F7000030F6000030F5000030B0
:1004BA00F4000A168A15A4260A128A110318662A53
:1004CA00672A842A831603134908F3004808F200AE
:1004DA004708F1004608F0000A128A1107200A129A
:1004EA008A11730883160313C9007208C8007108B9
:1004FA00C7007008C6000330B7040030B80483167A
:10050A000313BD01BE014908F3004808F200470879
:10051A00F1004608F0000030F7000030F600003025
:10052A00F5000030F4000A168A15F3240A128A111B
:10053A000318A02AA12A912B031083160313480D2E
:10054A00490D823EBD00FF3003180030BE00FF3067
:10055A00BD070318BE0AFF30BE070330F0000030A3
:10056A00F1003E08F3003D08F2000A168A15AA2394
:10057A000A128A11710883160313BE007008BD009F
:10058A000A30F7000030F8003E08FA003D08F9008A
:10059A000A128A15D7200A128A11780883160313B9
:1005AA00BE007708BD00BE1FDB2ADC2AE22AFF3024
:1005BA00BD070318BE0AFF30BE073D03FF3A0A1201
:1005CA008A1540210A128A11831203134A088316D4
:1005DA000313C20083120313490883160313C100CD
:1005EA0083120313480883160313C00083120313EC
:1005FA00470883160313BF00490883120313B00088
:10060A0083160313480883120313AF0083160313D8
:10061A00470883120313AE00831603134608831296
:10062A000313AD0083160313420883120313B400A5
:10063A0083160313410883120313B30083160313AB
:10064A00400883120313B200831603133F08831270
:10065A000313B1000A128A159F240A128A118312FF
:10066A000313300883160313C200831203132F08DF
:10067A0083160313C100831203132E088316031370
:10068A00C000831203132D0883160313BF00420808
:10069A00F3004108F2004008F1003F08F0003F3043
:1006AA00F7008030F6000030F5000030F4000A163A
:1006BA008A15A4260A128A110318642B652B6E2B3D
:1006CA00FF3083160313BD070318BE0AFF30BE07A7
:1006DA00912B831603134208F3004108F2004008E5
:1006EA00F1003F08F0004130F7002030F6000030FA
:1006FA00F5000030F4000A168A15A4260A128A1197
:10070A00031C882B892B912B013083160313BD07F9
:10071A000318BE0A0030BE07831603134508803A41
:10072A00FF0080307F02031D9C2B0D30440203180A
:10073A009F2BA02BE72B8316031344080A168A1152
:10074A006D230A128A11831203134A08DE0049082C
:10075A00DD004808DC004708DB008316031349085C
:10076A0083120313E2008316031348088312031348
:10077A00E10083160313470883120313E00083166C
:10078A000313460883120313DF000A168A11782519
:10079A000A128A11831203135E0883160313C9000F
:1007AA00831203135D0883160313C800831203130D
:1007BA005C0883160313C700831203135B088316AE
:1007CA000313C600831603133E08803AFF008030E5
:1007DA007F02031DF22B0A303D020318F52BF62B7C
:1007EA00472C831603134908F3004808F200470808
:1007FA00F1004608F0000030F7000030F600003043
:10080A00F5000030F4000A168A15F3240A128A1138
:10081A000318102C112CB92C8316031349088312C0
:10082A000313DD0083160313480883120313DC0045
:10083A0083160313470883120313DB00831603137B
:10084A00460883120313DA000A128A1112200A12C6
:10085A008A11831203135D085C045B045A04031DA6
:10086A00372C382CB92C831603133E08803AFF0024
:10087A0080307F02031D432C02303D02031C462CAC
:10088A00472CB92C831603134208F3004108F200DF
:10089A004008F1003F08F0004030F7008930F600C8
:1008AA007030F5005F30F4000A168A15A4260A1281
:1008BA008A110318612C622C6B2CF73083160313F0
:1008CA00BD070318BE0AFF30BE07732CF830831623
:1008DA000313BD070318BE0AFF30BE073D080A12FC
:1008EA008A1540210A128A11831203134A088316B1
:1008FA000313C20083120313490883160313C100AA
:10090A0083120313480883160313C00083120313C8
:10091A00470883160313BF004908F3004808F2008A
:10092A004708F1004608F0004208F7004108F600BF
:10093A004008F5003F08F4000A168A11CC200A1272
:10094A008A11730883160313BC007208BB0071086E
:10095A00BA007008B9000030C9000030C800003081
:10096A00C7000030C6001F2D8316031349088312DF
:10097A000313DD0083160313480883120313DC00F4
:10098A0083160313470883120313DB00831603132A
:10099A00460883120313DA000A128A1112200A1275
:1009AA008A11831203135D0883160313BC00831292
:1009BA0003135C0883160313BB00831203135B083B
:1009CA0083160313BA00831203135A0883160313F8
:1009DA00B9003C08F3003B08F2003A08F100390874
:1009EA00F00000300A168A1546270A128A1173087F
:1009FA0083160313A3007208A2007108A1007008ED
:100A0A00A0004908A7004808A6004708A50046080C
:100A1A00A4000A168A1541250A128A11831603139D
:100A2A002308C9002208C8002108C7002008C600F8
:100A3A00BD01BE01CA01CA0A4A08AD00013003104D
:100A4A00AD0DFF3E031D242D03102D0D693E8400BC
:100A5A000A128A150A200A128A11AE000A128A1587
:100A6A000A200A128A11AF000A128A150A200A12EB
:100A7A008A11B0000A128A150A200A128A11B100D4
:100A8A0031083C02031D532D30083B02031D532D30
:100A9A002F083A02031D532D2E0839020318562D2A
:100AAA00572D582D622D0130AD002D08CA070A3086
:100ABA004A06031D612D622D212D03303705AD0035
:100ACA0000303805AE002D082E0403196D2D6E2D49
:100ADA00E02D2D30AD00430884002D0883138000DB
:100AEA000130AD002D08C307E02D4A08AD000130E2
:100AFA000310AD0DFF3E031D7D2D03102D0D693E24
:100B0A0084000A128A150A200A128A11F0000A12AF
:100B1A008A150A200A128A11F1000A128A150A2075
:100B2A000A128A11F2000A128A150A200A128A1176
:100B3A00F3003C08F7003B08F6003A08F5003908CC
:100B4A00F4000A168A153E260A128A1173088316B9
:100B5A000313C2007208C1007108C0007008BF0008
:100B6A000030F3000030F2000030F1000A30F000EB
:100B7A004208F7004108F6004008F5003F08F40073
:100B8A000A168A1591250A128A1173088316031305
:100B9A00C2007208C1007108C0007008BF003F0897
:100BAA00303EAD00430884002D08831380000130D5
:100BBA00AD002D08C3070130CA024A0A031DE62DFB
:100BCA00E72D7A2DFB2D303083160313AD00430831
:100BDA0084002D08831380000130AD002D08C3075F
:100BEA00FF30BD070318BE0AFF30BE073E08803A31
:100BFA00FF0080307F02031D042E01303D020318DE
:100C0A00072E082EE82D831603134508803AFF00A5
:100C1A0080307F02031D132E09304402031C162E56
:100C2A00172E1E2E083083160313AD002D08CA0096
:100C3A00242E831603134408AD002D08CA004A085F
:100C4A00AD00AE012D08C4022E08031CC503C5025F
:100C5A004A080319312E322E3D2E2E30AD0043089C
:100C6A0084002D08831380000130AD002D08C307CE
:100C7A004A080A128A1540210A128A11831203139A
:100C8A004A0883160313B50083120313490883160F
:100C9A000313B40083120313480883160313B30023
:100CAA0083120313470883160313B200350883120D
:100CBA000313B40083160313340883120313B30017
:100CCA0083160313330883120313B2008316031324
:100CDA00320883120313B1008316031349088312DF
:100CEA000313B00083160313480883120313AF00DB
:100CFA0083160313470883120313AE0083160313E4
:100D0A00460883120313AD000A128A159F240A1299
:100D1A008A11831203133008DD002F08DC002E0825
:100D2A00DB002D08DA000A128A1112200A128A112F
:100D3A00831203135D0883160313BC008312031383
:100D4A005C0883160313BB00831203135B08831624
:100D5A000313BA00831203135A0883160313B90044
:100D6A00572F4A08AD0001300310AD0DFF3E031D99
:100D7A00B92E03102D0D693E84000A128A150A2025
:100D8A000A128A11F0000A128A150A200A128A1116
:100D9A00F1000A128A150A200A128A11F2000A12AE
:100DAA008A150A200A128A11F3003C08F7003B0848
:100DBA00F6003A08F5003908F4000A168A153E26A4
:100DCA000A128A11730883160313C2007208C1003B
:100DDA007108C0007008BF000030F3000030F20054
:100DEA000030F1000A30F0004208F7004108F6002E
:100DFA004008F5003F08F4000A168A1591250A12E0
:100E0A008A11730883160313C2007208C10071089D
:100E1A00C0007008BF003F08303EAD0043088400A0
:100E2A002D08831380000130AD002D08C3074A083E
:100E3A00AD0001300310AD0DFF3E031D1F2F03103F
:100E4A002D0D693E84000A128A150A200A128A1197
:100E5A00F0000A128A150A200A128A11F1000A12EF
:100E6A008A150A200A128A11F2000A128A150A2021
:100E7A000A128A11F3003C08F7003B08F6003A0808
:100E8A00F5003908F4000A168A1591250A128A1102
:100E9A00730883160313BC007208BB007108BA00FA
:100EAA007008B9000130CA024A0A031D5D2F5E2F7D
:100EBA00B62E702F3030AD00430884002D088313FE
:100ECA0080000130AD002D08C307FF30C4070318A6
:100EDA00C50AFF30C50744084504031D752F762F40
:100EEA005F2FBC2F44084504031D7C2F7D2F8B2FB9
:100EFA003C083B043A043904031D842F852F8B2FA9
:100F0A000130C4070318C50A0030C5074508803AEE
:100F1A00803C031D922F44084A020318952F962FEE
:100F2A00972FA62F831603134508803AAD00803009
:100F3A002D02031DA22F4A0844020318A52FA62F2B
:100F4A00A62F0330831603133705AD00003038058A
:100F5A00AE002D082E040319B32FB42FBC2F2D3049
:100F6A00AD00430884002D0883138000AE290130A8
:100F7A00A807FF30280784000A128A150A200A12D5
:100F8A008A11AD002D08CA004A08031DCD2FCE2FA5
:100F9A00A129430884008313800108008317BF3006
:100FAA00FD001030FE000630FF00B63084000A163D
:100FBA008A15E5220A128A11831603130A128A1164
:100FCA0005200A128A11EE000A128A1106200A1254
:100FDA008A11EF0090308400B6300A168A15B522BD
:100FEA000A128A11EC01ED0183120313EF01830146
:100FFA000A128A118E28FF1B0A2883137F18831767
:10100A000008840A0319FF0A080008308A00040845
:10101A00840A820700340034003480343F340034B8
:10102A0000342034413400340034C83442340034AB
:10103A0000347A344434003440341C3446340034A6
:10104A005034C3344734003424347434493480343B
:10105A00963418344B342034BC34BE344C342834DF
:10106A006B346E344E34F934023415345034EC3463
:10107A007834AD346034CA34F234493471340034CB
:10108A00003480343F34CD34CC34CC343D340A344B
:10109A00D73423343C346F34123483343A3417341B
:1010AA00B734D1343834AC34C53427343734BD344A
:1010BA003734863435349534BF34D63433347734C0
:1010CA00CC342B3432345F34703489343034FF34C6
:1010DA00E634DB342E340834E5343C341E346034D0
:1010EA004234A2340D3401340034003400340A345A
:1010FA000034003400346434003400340034E834FA
:10110A000334003400341034273400340034A0345B
:10111A00863401340034403442340F34003480348D
:10112A009634983400340034E134F534053400340C
:10113A00CA349A343B3442346C347534653474346A
:10114A006F346F3474346834203449346E346934FB
:10115A007434693461346C3469347A34653464348F
:10116A00203461346E34643420345234653461344A
:10117A0064347934003442344C3454342034523494
:10118A006534613464347934003425342E3430348F
:06119A0066340A34003443
:1011A4000D30831203139900080083120313A10165
:1011B400F81FDD28DE28E528F709F809F70A0319DE
:1011C400F80AA101A10AFA1FE828E928F228F90976
:1011D400FA09F90A0319FA0A0130FB007B08A1068F
:1011E400A201A301770878040319F928FA28312900
:1011F400A001A00A082901300310F70DF80DFF3EE5
:10120400031DFE280130FB007B08A007F81F0B29F3
:101214000C29FD2801300310A20DA30DFF3E031D70
:101224000D2978087A02031D192977087902031C0D
:101234001C291D2924297708F9027808031CFA03BC
:10124400FA02221401300310F80CF70CFF3E031DC0
:1012540025290130A002031D302931290C29210838
:101264000319352936293B29A209A309A20A03191E
:10127400A30A2308F8002208F700080083120313C6
:10128400D900D91F46294729F42AD909D90A590866
:10129400803A123E031C4F295029382A0A30F7009D
:1012A4000030F8005908F200F301F21BF303643034
:1012B400F0000030F1000A168A15E5250A128A1595
:1012C4007108FA007008F9000A128A15D7200A1268
:1012D4008A15770883120313CB0001300310CB0D5A
:1012E400FF3E031D702903104B0D593E84000A1262
:1012F4008A150A200A128A15CC000A128A150A20B5
:101304000A128A15CD000A128A150A200A128A15B1
:10131400CE000A128A150A200A128A15CF004F0835
:10132400B0004E08AF004D08AE004C08AD0064306C
:10133400F7000030F8005908F900FA01F91BFA0324
:101344000A128A15D7200A128A1577088312031302
:10135400D00001300310D00DFF3E031DAC29031053
:10136400500D7D3E84000A128A150A200A128A153D
:10137400D1000A128A150A200A128A15D2000A120A
:101384008A150A200A128A15D3000A128A150A201D
:101394000A128A15D4005408B4005308B300520842
:1013A400B2005108B1000A128A159F240A128A1544
:1013B400831203133008D8002F08D7002E08D60054
:1013C4002D08D5000A30F0000030F1005908F20071
:1013D400F301F21BF3030A168A15E5250A128A158E
:1013E400700883120313CB0001300310CB0DFF3EB2
:1013F400031DF72903104B0D353E84000A128A158C
:101404000A200A128A15CC000A128A150A200A1226
:101414008A15CD000A128A150A200A128A15CE00EE
:101424000A128A150A200A128A15CF004F08B00042
:101434004E08AF004D08AE004C08AD005808B4008B
:101444005708B3005608B2005508B1000A128A15AD
:101454009F240A128A15831203133008CA002F0826
:10146400C9002E08C8002D08C7009E2C5908803AD0
:10147400753E031C3E2A3F2AC72A0A30F00000307A
:10148400F1005908F200F301F21BF3030A168A155E
:10149400E5250A128A15700883120313CB00013064
:1014A4000310CB0DFF3E031D522A03104B0D353E96
:1014B40084000A128A150A200A128A15CC000A121C
:1014C4008A150A200A128A15CD000A128A150A20E2
:1014D4000A128A15CE000A128A150A200A128A15DF
:1014E400CF004F08B0004E08AF004D08AE004C08C6
:1014F400AD000A30F7000030F8005908F900FA018D
:10150400F91BFA030A128A15D7200A128A157708DA
:1015140083120313D00001300310D00DFF3E031DCE
:101524008E2A0310500D593E84000A128A150A208F
:101534000A128A15D1000A128A150A200A128A157B
:10154400D2000A128A150A200A128A15D3000A1236
:101554008A150A200A128A15D4005408B4005308C4
:10156400B3005208B2005108B1000A128A159F2430
:101574000A128A15831203133008CA002F08C900FF
:101584002E08C8002D08C7009E2C5908CB00013036
:101594000310CB0DFF3E031DCA2A03104B0D353E2D
:1015A40084000A128A150A200A128A15CC000A122B
:1015B4008A150A200A128A15CD000A128A150A20F1
:1015C4000A128A15CE000A128A150A200A128A15EE
:1015D400CF004F08CA004E08C9004D08C8004C0887
:1015E400C7009E2C5908803A123E031CFA2AFB2A93
:1015F400E32B0A30F7000030F8005908F200F30139
:10160400F21BF3036430F0000030F1000A168A156F
:10161400E5250A128A157108FA007008F9000A1201
:101624008A15D7200A128A15770883120313CB0070
:1016340001300310CB0DFF3E031D1B2B03104B0D7C
:10164400253E84000A128A150A200A128A15CC0043
:101654000A128A150A200A128A15CD000A128A155E
:101664000A200A128A15CE000A128A150A200A12C2
:101674008A15CF004F08B0004E08AF004D08AE00E9
:101684004C08AD006430F7000030F8005908F90048
:10169400FA01F91BFA030A128A15D7200A128A15CD
:1016A400770883120313D00001300310D00DFF3EDE
:1016B400031D572B0310500D493E84000A128A154E
:1016C4000A200A128A15D1000A128A150A200A125F
:1016D4008A15D2000A128A150A200A128A15D30022
:1016E4000A128A150A200A128A15D4005408B40072
:1016F4005308B3005208B2005108B1000A128A1507
:101704009F240A128A15831203133008D8002F0865
:10171400D7002E08D6002D08D5000A30F00000307E
:10172400F1005908F200F301F21BF3030A168A15BB
:10173400E5250A128A15700883120313CB000130C1
:101744000310CB0DFF3E031DA22B03104B0D013ED6
:1017540084000A128A150A200A128A15CC000A1279
:101764008A150A200A128A15CD000A128A150A203F
:101774000A128A15CE000A128A150A200A128A153C
:10178400CF004F08B0004E08AF004D08AE004C0823
:10179400AD005808B4005708B3005608B200550805
:1017A400B1000A128A159F240A128A1583120313A0
:1017B4003008CA002F08C9002E08C8002D08C70029
:1017C4009E2C5908803A753E031CE92BEA2B722C97
:1017D4000A30F0000030F1005908F200F301F21B66
:1017E400F3030A168A15E5250A128A15700883126E
:1017F4000313CB0001300310CB0DFF3E031DFD2B63
:1018040003104B0D013E84000A128A150A200A12A5
:101814008A15CC000A128A150A200A128A15CD00EC
:101824000A128A150A200A128A15CE000A128A158B
:101834000A200A128A15CF004F08B0004E08AF00E4
:101844004D08AE004C08AD000A30F7000030F80037
:101854005908F900FA01F91BFA030A128A15D7206C
:101864000A128A15770883120313D000013003107B
:10187400D00DFF3E031D392C0310500D253E84006E
:101884000A128A150A200A128A15D1000A128A1528
:101894000A200A128A15D2000A128A150A200A128C
:1018A4008A15D3000A128A150A200A128A15D4004E
:1018B4005408B4005308B3005208B2005108B100F0
:1018C4000A128A159F240A128A15831203133008F8
:1018D400CA002F08C9002E08C8002D08C7009E2C76
:1018E4005908CB0001300310CB0DFF3E031D752CAE
:1018F40003104B0D013E84000A128A150A200A12B5
:101904008A15CC000A128A150A200A128A15CD00FB
:101914000A128A150A200A128A15CE000A128A159A
:101924000A200A128A15CF004F08CA004E08C900BF
:101934004D08C8004C08C700080083120313300880
:101944008039B5003508BA003008B5003507B6004F
:101954003608C000AF1FAF2CB02CB12C4014400887
:101964000319B52CB62CC52C400A031DBA2CBB2C6C
:10197400C32C0030B0000030AF000030AE000030A7
:10198400AD00AF17CD2C0030B0000030AF000030F8
:10199400AE000030AD0034088039B5003508BA0611
:1019A4003408B5003507B6003608BF00B31FDB2C7A
:1019B400DC2CDD2C3F143F080319E12CE22CF12C24
:1019C4003F0A031DE62CE72CEF2C0030B400003056
:1019D400B3000030B2000030B100B317F92C00306E
:1019E400B4000030B3000030B2000030B1003F0852
:1019F4000319FD2CFE2C032D4008031D022D032D7D
:101A04000C2D0030B0000030AF000030AE000030CC
:101A1400AD00FF2F2D08B5003508F00033080A1675
:101A24008A15F5230A128A15710883120313C60056
:101A34007008C5004508B500B601B701B8013808FB
:101A4400BE003708BD003608BC003508BB00460898
:101A5400B500B601B701B8013808C4003708C3009F
:101A64003608C2003508C1002E08B5003508F0005C
:101A740032080A168A15F5230A128A157108831288
:101A84000313C6007008C5004508B500B601B701C8
:101A9400B8013508BB07360803110318013E0319C2
:101AA400542DBC07370803110318013E03195B2D9D
:101AB400BD07380803110318013E0319622DBE0740
:101AC4004608B500B601B701B8013508C1073608A4
:101AD40003110318013E0319702DC20737080311BF
:101AE4000318013E0319772DC3073808031103189F
:101AF400013E03197E2DC4072F08B5003508F000F8
:101B040031080A168A15F5230A128A1571088312F8
:101B14000313C6007008C5004508B500B601B70137
:101B2400B8013508BB07360803110318013E031931
:101B34009C2DBC07370803110318013E0319A32D7C
:101B4400BD07380803110318013E0319AA2DBE0767
:101B54004608B500B601B701B8013508C107360813
:101B640003110318013E0319B82DC20737080311E6
:101B74000318013E0319BF2DC307380803110318C6
:101B8400013E0319C62DC4070830B5000310BB0D70
:101B9400BC0DBD0DBE0DB50BC82D2E08B500350806
:101BA400F00031080A168A15F5230A128A157108FD
:101BB40083120313C6007008C5004508B500460823
:101BC400B600B701B8013508BB073608031103187E
:101BD400013E0319EE2DBC07370803110318013E1B
:101BE4000319F52DBD07380803110318013E031925
:101BF400FC2DBE072D08B5003508F00032080A1682
:101C04008A15F5230A128A15710883120313C60074
:101C14007008C5004508B5004608B600B701B8010C
:101C24003508BB07360803110318013E03191B2EA0
:101C3400BC07370803110318013E0319222EBD0700
:101C4400380803110318013E0319292EBE07083072
:101C5400B5000310BB0DBC0DBD0DBE0DB50B2B2E79
:101C64002D08B5003508F00031080A168A15F52349
:101C74000A128A15710883120313C6007008C5007E
:101C84004508B5004608B600B701B8013508BB07DA
:101C9400360803110318013E0319512EBC073708F7
:101CA40003110318013E0319582EBD073808031108
:101CB4000318013E03195F2EBE072E08B500350830
:101CC400F00033080A168A15F5230A128A157108DA
:101CD40083120313C6007008C5004508B500460802
:101CE400B600B701B8013508C10736080311031857
:101CF400013E03197E2EC207370803110318013E63
:101D04000319852EC307380803110318013E03196C
:101D14008C2EC4072F08B5003508F00032080A16C7
:101D24008A15F5230A128A15710883120313C60053
:101D34007008C5004508B5004608B600B701B801EB
:101D44003508C107360803110318013E0319AB2EE9
:101D5400C207370803110318013E0319B22EC30743
:101D6400380803110318013E0319B92EC4072F08BC
:101D7400B5003508F00033080A168A15F5230A124F
:101D84008A15710883120313C6007008C50045083C
:101D9400B5004608B600B701B80108300310B50D08
:101DA400B60DB70DB80DFF3E031DD02E3508C10783
:101DB400360803110318013E0319E12EC207370840
:101DC40003110318013E0319E82EC3073808031151
:101DD4000318013E0319EF2EC4073B08B5003C0865
:101DE400B6003D08B7003E08B80018300310B80C20
:101DF400B70CB60CB50CFF3E031DF82E3508C10711
:101E0400360803110318013E0319092FC2073708C6
:101E140003110318013E0319102FC30738080311D7
:101E24000318013E0319172FC4070830B500031027
:101E3400BB0DBC0DBD0DBE0DB50B192F40083F07E2
:101E4400B500B601B60D3508823EC5003608031844
:101E5400013EFF3EC6004B2F0130B5000310C10DFB
:101E6400C20DC30DC40DB50B302FBE1F3A2F3B2F2F
:101E74003C2F41140130B5000310BB0DBC0DBD0D4A
:101E8400BE0DB50B3E2FFF30C5070318C60AFF3041
:101E9400C607C31F4E2F4F2F2E2FBF01BE1F532F18
:101EA400542F702FFF303B05B500FF303C05B600C2
:101EB400FF303D05B7007F303E05B80038083704D1
:101EC400360435040319672F682F6B2FBF01BF0A2F
:101ED400702F411C6E2F6F2F702F682F3F0803192E
:101EE400742F752FA62F0130C1070030031801305D
:101EF400C207003003180130C30700300318013053
:101F0400C407441C862F872FA62F4108B50042081A
:101F1400B6004308B7004408B8000130B900380DD2
:101F2400B80CB70CB60CB50CB90B912F3808C4001B
:101F34003708C3003608C2003508C1000130C507A0
:101F44000318C60A0030C6074608803AFF008030EE
:101F54007F02031DAF2FFF304502031CB22FB32FA6
:101F6400BE2F7F3083120313C4008030C3000030BF
:101F7400C2000030C100F32F831203134608803AD5
:101F8400FF0080307F02031DC92F01304502031872
:101F9400CC2FCD2FD92F003083120313C40000306F
:101FA400C3000030C2000030C100BA01F32F831215
:101FB40003134508B5003508C000FF30C105FF30E4
:101FC400C2057F30C3050030C405401CEA2FEB2F47
:101FD400EC2FC3174008B5000310350CB6003608C3
:101FE400C4003A08B5003508C4044408B0004308E6
:0C1FF400AF004208AE004108AD0008003C
:10200C00FF34FF34583402340034023400340234C8
:10201C0001347008F8007108F9007208FA00031016
:10202C00790D7A0DFB007B0883120313A50025089C
:10203C00031D212822282B280030F3000030F20049
:10204C000030F1000030F000CB287408F80075085F
:10205C00F9007608FA000310790D7A0DFB007B0865
:10206C00A4002408031D3B283C283D282228F117F6
:10207C00FF30F005FF30F1050030F205F517FF30A9
:10208C00F405FF30F5050030F6050030A3000030F4
:10209C00A2000030A1000030A0007F30A5029830D3
:1020AC002407F8007808A5021830F8007808A40076
:1020BC000130F8000310A00DA10DA20DA30DF80B1B
:1020CC00602876087202031D712875087102031DC1
:1020DC00712874087002031C7428752880287408F1
:1020EC00F0027508031C750FF1027608031C760AC2
:1020FC00F202201401300310F00DF10DF20DFF3E31
:10210C00031D81280130A402031D8D288E285E2812
:10211C00A51F91289228AC282508803A973E0318D1
:10212C00982899289A28222801300310A30CA20C75
:10213C00A10CA00CFF3E031D9B280130F800780871
:10214C00A507031DAA28AB289A28C32818302502F6
:10215C00031CB128B228BE2822280130F800031035
:10216C00A00DA10DA20DA30DF80BB5280130A502F1
:10217C002508031DC228C328B3282308F30022080E
:10218C00F2002108F1002008F00008000310720D85
:10219C00730DF800780883120313A5002508031D9E
:1021AC00D828D928E2280030F3000030F2000030A3
:1021BC00F1000030F00089290310760D770DF8003E
:1021CC007808A4002408031DEC28ED28EE28D92853
:1021DC00F217FF30F005FF30F105FF30F20500304B
:1021EC00F305F617FF30F405FF30F505FF30F60563
:1021FC000030F7050030A3000030A2000030A10031
:10220C000030A0007F30A502A0302407F800780829
:10221C00A5022030F8007808A4000130F800031063
:10222C00A00DA10DA20DA30DF80B152977087302B3
:10223C00031D2A2976087202031D2A2975087102CA
:10224C00031D2A2974087002031C2D292E293D29EF
:10225C007408F0027508031C750FF1027608031C54
:10226C00760FF2027708031C770FF302201401306B
:10227C00F8000310F00DF10DF20DF30DF80B3F29E2
:10228C000130A402031D4B294C291329A51F4F29EA
:10229C0050296A292508803A9F3E03185629572948
:1022AC005829D92801300310A30CA20CA10CA00CA6
:1022BC00FF3E031D59290130F8007808A507031DBE
:1022CC00682969295829812920302502031C6F2986
:1022DC0070297C29D9280130F8000310A00DA10D1C
:1022EC00A20DA30DF80B73290130A5022508031DBF
:1022FC008029812971292308F3002208F200210882
:10230C00F1002008F000080077088039F800780800
:10231C0083120313A4007708F8007807F9007908F2
:10232C00AB00F61F9A299B299C292B142B08031907
:10233C00A029A129B1292B0A031DA529A629AE295B
:10234C000030F7000030F6000030F5000030F400EB
:10235C00F617F701B9290030F7000030F60000300D
:10236C00F5000030F40073088039F8007808A406F2
:10237C007308F8007807F9007908AC00F21FC72938
:10238C00C829C9292C142C080319CD29CE29DE29DA
:10239C002C0A031DD229D329DB290030F30000308D
:1023AC00F2000030F1000030F000F217F301E629E2
:1023BC000030F3000030F2000030F1000030F0008B
:1023CC007308720471047004031DED29EE29072AA9
:1023DC000030F7000030F6000030F5000030F4005B
:1023EC008030F6047F30F7042408F8007808F704EE
:1023FC007708F3007608F2007508F1007408F00015
:10240C006C2B2B08031D0B2A0C2A152A0030F30009
:10241C000030F2000030F1000030F0006C2B2B0883
:10242C00F800F9017908FB002C087802FA00031C6B
:10243C00FB037A087F3EA5007B080318013E003E93
:10244C00A6007708A3007608A2007508A1007408FE
:10245C00A0000030F7000030F6000030F50000302E
:10246C00F4000030AA000030A9000030A8000030B1
:10247C00A700AC01912A2C080319452A462A662A82
:10248C000130F8000310A00DA10DA20DA30DF80B47
:10249C00482A0130F8000310F40DF50DF60DF70D78
:1024AC00F80B512AAA1F5B2A5C2A5D2A741401308E
:1024BC00F8000310A70DA80DA90DAA0DF80B5F2AA3
:1024CC0073082302031D742A72082202031D742A46
:1024DC0071082102031D742A70082002031C772A3C
:1024EC00782A8D2A2A177008A0027108031C710F14
:1024FC00802A812AA1027208031C720F862A872A5D
:10250C00A2027308031C730F8C2A8D2AA3020130BC
:10251C00F8007808AC071A302C02031C962A972A6C
:10252C00412A230822042104200403199E2A9F2AED
:10253C00BE2A2714BE2A0130F8000310F40DF50D45
:10254C00F60DF70DF80BA32AAA1FAD2AAE2AAF2A57
:10255C0074140130F8000310A70DA80DA90DAA0DD5
:10256C00F80BB12AFF30A5070318A60AFF30A607FF
:10257C00F61FC12AC22AA12AAC01AA1FC62AC72A41
:10258C00E32AFF302705F800FF302805F900FF305B
:10259C002905FA007F302A05FB007B087A047904B0
:1025AC0078040319DA2ADB2ADE2AAC01AC0AE32A06
:1025BC00741CE12AE22AE32ADB2A2C080319E72AF5
:1025CC00E82A192B0130F407003003180130F50705
:1025DC00003003180130F607003003180130F707FC
:1025EC00771CF92AFA2A192B7408F8007508F900D7
:1025FC007608FA007708FB000130FC007B0DFB0C21
:10260C00FA0CF90CF80CFC0B042B7B08F7007A087D
:10261C00F6007908F5007808F4000130A5070318D6
:10262C00A60A0030A6072608803AFF0080307F02F9
:10263C00031D222BFF302502031C252B262B342BAC
:10264C00FF3083120313A5000030A6000030F70002
:10265C000030F6000030F5000030F4008312031354
:10266C002608803AFF0080307F02031D3F2B01308B
:10267C0025020318422B432B502B83120313A50165
:10268C00A6010030F7000030F6000030F5000030F5
:10269C00F400A401831203132508F8007808AB009A
:1026AC002B1C592B5A2B5C2BF617602B7F30F80008
:1026BC007808F6052B08F8000310780CF900790857
:1026CC00F7002408F8007808F704FE2908008312A4
:1026DC000313DA006E305A02031C752B762B832CF5
:1026EC003F30B0000030AF000030AE000030AD0025
:1026FC006430F6000030F7005A08CB00CC014B08D0
:10270C00F8004C08F9000A168A15AF240A168A112B
:10271C00760883120313CD0001300310CD0DFF3E5C
:10272C00031D932B03104D0D7D3E84000A128A1558
:10273C000A200A168A11CE000A128A150A200A16D5
:10274C008A11CF000A128A150A200A168A11D000A3
:10275C000A128A150A200A168A11D1005108B400EF
:10276C005008B3004F08B2004E08B1000A128A1587
:10277C009F240A168A11831203133008D9002F08DC
:10278C00D8002E08D7002D08D6000A30F6000030ED
:10279C00F7005A08CB00CC014B08F2004C08F300B0
:1027AC006430F0000030F1000A168A1575240A1600
:1027BC008A117108F9007008F8000A168A15AF24FE
:1027CC000A168A11760883120313CD000130031008
:1027DC00CD0DFF3E031DED2B03104D0D593E840016
:1027EC000A128A150A200A168A11CE000A128A15B4
:1027FC000A200A168A11CF000A128A150A200A1614
:10280C008A11D0000A128A150A200A168A11D100E0
:10281C005108B0005008AF004F08AE004E08AD0094
:10282C005908B4005808B3005708B2005608B10054
:10283C000A128A159F240A168A1183120313300870
:10284C00D5002F08D4002E08D3002D08D2000A3052
:10285C00F0000030F1005A08CB00CC014B08F2001C
:10286C004C08F3000A168A1575240A168A1170088A
:10287C0083120313CD0001300310CD0DFF3E031D59
:10288C00422C03104D0D353E84000A128A150A2085
:10289C000A168A11CE000A128A150A200A168A1103
:1028AC00CF000A128A150A200A168A11D0000A12C1
:1028BC008A150A200A168A11D1005108B000500856
:1028CC00AF004F08AE004E08AD005508B4005408D8
:1028DC00B3005308B2005208B1000A128A159F24A3
:1028EC000A168A11831203133008CA002F08C90074
:1028FC002E08C8002D08C700772D0B305A02031C78
:10290C00882C892C342D3F30B0000030AF000030C3
:10291C00AE000030AD000A30F6000030F7005A0867
:10292C00CB00CC014B08F8004C08F9000A168A15AC
:10293C00AF240A168A11760883120313CD000130D6
:10294C000310CD0DFF3E031DA62C03104D0D593E5B
:10295C0084000A128A150A200A168A11CE000A125D
:10296C008A150A200A168A11CF000A128A150A2023
:10297C000A168A11D0000A128A150A200A168A1120
:10298C00D1005108B4005008B3004F08B2004E08F3
:10299C00B1000A128A159F240A168A118312031396
:1029AC003008D9002F08D8002E08D7002D08D600E3
:1029BC000A30F0000030F1005A08CB00CC014B0873
:1029CC00F2004C08F3000A168A1575240A168A11AF
:1029DC00700883120313CD0001300310CD0DFF3EA0
:1029EC00031DF32C03104D0D353E84000A128A157D
:1029FC000A200A168A11CE000A128A150A200A1613
:102A0C008A11CF000A128A150A200A168A11D000E0
:102A1C000A128A150A200A168A11D1005108B00030
:102A2C005008AF004F08AE004E08AD005908B40076
:102A3C005808B3005708B2005608B1000A128A159C
:102A4C009F240A168A11831203133008CA002F0818
:102A5C00C9002E08C8002D08C700772D3F30B000E4
:102A6C000030AF000030AE000030AD005A08CB0093
:102A7C0001300310CB0DFF3E031D3F2D03104B0DFA
:102A8C00353E84000A128A150A200A168A11CC00D7
:102A9C000A128A150A200A168A11CD000A128A1502
:102AAC000A200A168A11CE000A128A150A200A1662
:102ABC008A11CF004F08B4004E08B3004D08B20085
:102ACC004C08B1000A128A159F240A168A11831227
:102ADC0003133008CA002F08C9002E08C8002D089F
:102AEC00C7000800831203135E088039E3006308F3
:102AFC00EB005E08E3006307E4006408ED00DD1FF3
:102B0C00882D892D8A2D6D146D0803198E2D8F2D0E
:102B1C009F2D6D0A031D932D942D9C2D0030DE00EE
:102B2C000030DD000030DC000030DB00DD17DE01A2
:102B3C00A72D0030DE000030DD000030DC0000305E
:102B4C00DB0062088039E3006308EC006C086B065C
:102B5C000319B12DB22DB32D6B176208E300630777
:102B6C00E4006408EC00E11FBC2DBD2DBE2D6C14DF
:102B7C006C080319C22DC32DD32D6C0A031DC72D50
:102B8C00C82DD02D0030E2000030E1000030E00014
:102B9C000030DF00E117E201DB2D0030E2000030F5
:102BAC00E1000030E0000030DF006D086C0203181B
:102BBC00E02DE12D252E6B1FE42DE52DE92D803028
:102BCC00E3006308EB066D08E3006308EE006C0895
:102BDC00E3006308ED006E08E3006308EC005B089B
:102BEC00E3006308EE005F08E3006308DB006E0897
:102BFC00E3006308DF005C08E3006308EE00600894
:102C0C00E3006308DC006E08E3006308E0005D0885
:102C1C00E3006308EE006108E3006308DD006E0862
:102C2C00E3006308E1005E08E3006308EE0062085D
:102C3C00E3006308DE006E08E3006308E200EE01C7
:102C4C006C08E300E4016408E6006D086302E5002B
:102C5C00031CE6036608803AFF0080307F02031DE8
:102C6C00392E1A306502031C3C2E3D2E7A2E83120F
:102C7C0003135E085D045C045B04031D462E482EA2
:102C8C000130492E0030E3006308EE000030DE0016
:102C9C000030DD000030DC000030DB006C08E300AD
:102CAC006308ED00822E6E1C5C2E5D2E662E6E0867
:102CBC00E3000310630C0138E4006408EE00682E96
:102CCC000310EE0C5B1C6B2E6C2E6D2EEE17013070
:102CDC00E3005E0DDE0CDD0CDC0CDB0CE30B6F2E6D
:102CEC000130E3006308ED07831203136C086D02D7
:102CFC00031C812E822E592E6B1B852E862ED12ED7
:102D0C006D08031D8A2E8B2E942E0030DE000030B1
:102D1C00DD000030DC000030DB00FF2F5F08DB073C
:102D2C00600803110318013E03199D2EDC0761088E
:102D3C0003110318013E0319A42EDD0762080311C9
:102D4C000318013E0319AB2EDE075E1CAE2EAF2E10
:102D5C00852F6E1CB22EB32EBC2E6E08E300031012
:102D6C00630C0138E4006408EE00BE2E0310EE0C78
:102D7C005B1CC12EC22EC32EEE170130E3005E0D7C
:102D8C00DE0CDD0CDC0CDB0CE30BC52E0130E300A0
:102D9C006308ED07852F5E08803AFF006208803AD1
:102DAC007F02031DE32E61085D02031DE32E600804
:102DBC005C02031DE32E5F085B020318E62EE72E70
:102DCC003F2FFF30E300FF30E400FF30E500FF3021
:102DDC00E6005F08E7006008E8006108E9006208A7
:102DEC00EA005B08E7025C08031C5C0FFE2EFF2E5A
:102DFC00E8025D08031C5D0F042F052FE9025E0835
:102E0C00031C5E0F0A2F0B2FEA026708E307680802
:102E1C000318680F122F132FE40769080318690FA2
:102E2C00182F192FE5076A0803186A0AE6076608BF
:102E3C00DE006508DD006408DC006308DB00803020
:102E4C00E3006308EB06EE09EE0A6E08031D2F2F54
:102E5C00302F4D2F0130DB07003003180130DC0719
:102E6C00003003180130DD07003003180130DE0795
:102E7C004D2F5F08DB026008031C600FDC02610849
:102E8C00031C610FDD026208031C620FDE025E0888
:102E9C005D045C045B04031D542F552F812F6E08B9
:102EAC00031D592F5A2F812F0030DE000030DD001A
:102EBC000030DC000030DB00FF2F0130E30003109A
:102ECC00DB0DDC0DDD0DDE0DE30B652FEE1F6F2F23
:102EDC00702F712F5B146E1C742F752F782F0314A9
:102EEC00EE0D7A2F0310EE0D6D0803197E2F7F2F38
:102EFC00812F0130ED02DD1F842F852F632FEC0114
:102F0C00EE1F892F8A2F982F6E087F3903198F2F68
:102F1C00902F932FEC01EC0A982F5B1C962F972F78
:102F2C00982F902F6C0803199C2F9D2FD12F0130B7
:102F3C00DB07003003180130DC07003003180130C8
:102F4C00DD07003003180130DE075E1CAE2FAF2FFB
:102F5C00D12F5B08E3005C08E4005D08E5005E0827
:102F6C00E6000130E700660DE60CE50CE40CE30C22
:102F7C00E70BB92F6608DE006508DD006408DC008D
:102F8C006308DB006D0A0319CC2FCD2FD12F013034
:102F9C00E3006308ED076D0A0319D52FD62FDB2F3D
:102FAC006D08031DDA2FDB2FE92F0030DE00003017
:102FBC00DD000030DC000030DB006D08031DE72F66
:102FCC00E82FE92FEB016D1CEC2FED2FEF2FDD1708
:102FDC00F32F7F30E3006308DD056D08E300031079
:102FEC00630CE4006408DE00EB1FFD2FFE2FFF2FA7
:042FFC00DE170800D4
:10356A0064008001840A0406031900340406B62A9A
:10357A00F000831203130C1EC32AC42ABE2A831620
:10358A000313981CC92ACA2AC42A7008831203136F
:10359A0099000800F100F0013A3071020318D62AA6
:1035AA00D72ADF2A30307102031CDC2ADD2ADF2AFF
:1035BA00F001F00A700C08007E088A007F08820079
:1035CA000A168A15E1220A168A158000840A040856
:1035DA007D0603190034FF0A0319FE0AE52A83123D
:1035EA000313981CF92AFA2AFC2A181218168C1E98
:1035FA00FF2A002B062B8C1E032B042B002B1A08E8
:10360A00072B00300800831203131F139F1783161A
:10361A0003131F17831203139F111F129F1283167E
:10362A0003139F171F109F101F119F11831203135B
:10363A001F151F1408008316031307178717181579
:10364A0081309900181283120313981718138316DE
:10365A000313181398168312031318168B170B17D4
:10366A00831603138C160C160800F2008312031338
:10367A000611861186107208880086150830F00037
:10368A00F00B452B8312031386114130F100EE3003
:10369A00F000F00B4E2BF10B4E2B00000800F2004D
:1036AA008312031306118611861472088800861580
:1036BA000830F000F00B5F2B8312031386114130A0
:1036CA00F100EE30F000F00B682BF10B682B0000D4
:1036DA000800FF308316031385008601FF3083122A
:1036EA00031386000630F2001330F100AD30F0000B
:1036FA00F00B7D2BF10B7D2BF20B7D2B842B831290
:10370A000313860183160313880108008316031323
:10371A00861188018610061138300A168A153A234E
:10372A000A168A150C300A168A153A230A168A15B9
:10373A0006300A168A153A230A168A1501300A161D
:10374A008A153A230A168A150800F401F501701C35
:10375A00AF2BB02BB62B7208F4070318F50A7308BF
:10376A00F50701300310F20DF30DFF3E031DB72BD1
:10377A0001300310F10CF00CFF3E031DBE2B700844
:10378A007104031DC92BCA2BAC2B7508F1007408F0
:10379A00F0000800E42B7208FF00710884000A1286
:1037AA008A1500200A168A150A168A15BD220A16D3
:1037BA008A150130F1070318F20A0030F20772087D
:1037CA0083120313FF00710884000A128A1500206D
:1037DA000A168A15003A031DF32BF42BD02B080086
:1037EA00F800F401F5017008F200F3017208F6001E
:1037FA007308F700781C022C032C092C7608F407AE
:10380A000318F50A7708F50701300310F60DF70DCE
:10381A00FF3E031D0A2C0310F80C7808031D162C12
:10382A00172CFF2B7508F1007408F0000800F60148
:10383A00332C76087307840074080318740AFF008F
:10384A000A128A1500200A168A150A168A1554239E
:10385A000A168A150130F5007508F6077608730707
:10386A00840074080318740A83120313FF000A12EF
:10387A008A1500200A168A15003A031D452C462C83
:10388A001E2C0800F8000230730203184D2C4E2C2F
:10389A00742C10307802031C532C542C552C742C85
:1038AA0073030319592C5A2C602C80307804F600C3
:1038BA000030F700652CC0307804F6000030F700BD
:1038CA0076080A168A153A230A168A152130F5004F
:1038DA007630F400F40B6F2CF50B6F2C0000080007
:1038EA007008710403197A2C7B2CAA2CF501F50AAD
:1038FA00892C01300310F00DF10DFF3E031D7F2CC2
:10390A000130F4007408F507F11F8C2C8D2C7E2CE5
:10391A0071087302031D932C70087202031C962C03
:10392A00972C9D2C7008F2027108031CF303F30212
:10393A0001300310F10CF00CFF3E031D9E2C0130E8
:10394A00F502031DA92CAA2C8D2C7308F10072080C
:10395A00F0000800FB01FC01760877040319B62C75
:10396A00B72CEE2CFD01FD0AC52C01300310F60D13
:10397A00F70DFF3E031DBB2C0130FA007A08FD0744
:10398A00F71FC82CC92CBA2C01300310FB0DFC0DF3
:10399A00FF3E031DCA2C77087902031DD62C760830
:1039AA007802031CD92CDA2CE12C7608F802770865
:1039BA00031CF903F9027B1401300310F70CF60C0F
:1039CA00FF3E031DE22C0130FD02031DED2CEE2CFF
:1039DA00C92C7C08F7007B08F60008000030700547
:1039EA00F80000307105F90080307205FA007F3066
:1039FA007305FB007B087A0479047804031D062DFD
:103A0A00072D0F2D0030F3000030F2000030F100D6
:103A1A000030F00000307405F80000307505F90038
:103A2A0080307605FA007F307705FB007B087A0440
:103A3A0079047804031D222D232D2B2D0030F70045
:103A4A000030F6000030F5000030F4007708730605
:103A5A00031D392D76087206031D392D7508710666
:103A6A00031D392D7408700603193C2D3D2D3F2D79
:103A7A000310402D03140800803083160313A30695
:103A8A00270883120313DE00831603132608831202
:103A9A000313DD0083160313250883120313DC00C6
:103AAA0083160313240883120313DB0083160313FC
:103ABA00230883120313E2008316031322088312D6
:103ACA000313E10083160313210883120313E00092
:103ADA0083160313200883120313DF000A168A11C0
:103AEA0078250A168A15831203135E0883160313B0
:103AFA00A300831203135D0883160313A200831223
:103B0A0003135C0883160313A100831203135B08D3
:103B1A0083160313A000080073087204710470046A
:103B2A000319982D992DDC2DF901F90AA92D0130D7
:103B3A00F8000310F00DF10DF20DF30DF80B9E2DA8
:103B4A000130F8007808F907F31FAC2DAD2D9C2D34
:103B5A0073087702031DBB2D72087602031DBB2D65
:103B6A0071087502031DBB2D70087402031CBE2D5B
:103B7A00BF2DCD2D7008F4027108031C710FF502D8
:103B8A007208031C720FF6027308031C730FF70204
:103B9A0001300310F30CF20CF10CF00CFF3E031D84
:103BAA00CE2D0130F902031DDB2DDC2DAD2D77085A
:103BBA00F3007608F2007508F1007408F0000800B6
:103BCA00F601F31FE92DEA2DF12DF209F309F20AA4
:103BDA000319F30AF601F60AF11FF42DF52DFA2D51
:103BEA00F009F109F00A0319F10A700871040319BE
:103BFA00FF2D002E2F2EF501F50A0E2E013003108F
:103C0A00F00DF10DFF3E031D042E0130F40074087F
:103C1A00F507F11F112E122E032E71087302031DD0
:103C2A00182E70087202031C1B2E1C2E222E7008DE
:103C3A00F2027108031CF303F30201300310F10CC2
:103C4A00F00CFF3E031D232E0130F502031D2E2E1C
:103C5A002F2E122E76080319332E342E392EF209FE
:103C6A00F309F20A0319F30A7308F1007208F00063
:103C7A0008000030FC000030FB000030FA00003081
:103C8A00F900730872047104700403194D2E4E2E44
:103C9A009B2EFD01FD0A5E2E0130F8000310F00D87
:103CAA00F10DF20DF30DF80B532E0130F8007808E0
:103CBA00FD07F31F612E622E512E0130F80003100A
:103CCA00F90DFA0DFB0DFC0DF80B642E7308770243
:103CDA00031D792E72087602031D792E710875026A
:103CEA00031D792E70087402031C7C2E7D2E8C2EE7
:103CFA007008F4027108031C710FF5027208031CA4
:103D0A00720FF6027308031C730FF702791401305D
:103D1A000310F30CF20CF10CF00CFF3E031D8D2E78
:103D2A000130FD02031D9A2E9B2E622E7C08F300A1
:103D3A007B08F2007A08F1007908F00008000030E8
:103D4A007005F80000307105F90080307205FA003C
:103D5A007F307305FB007B087A0479047804031D1D
:103D6A00B72EB82EC02E0030F3000030F20000301B
:103D7A00F1000030F00000307405F80000307505DD
:103D8A00F90080307605FA007F307705FB007B0862
:103D9A007A0479047804031DD32ED42EDC2E003045
:103DAA00F7000030F6000030F5000030F400F31F91
:103DBA00DF2EE02E042F0030F8000030F90000302A
:103DCA00FA008030FB007008F8027108031C710FBA
:103DDA00EF2EF02EF9027208031C720FF52EF62E42
:103DEA00FA027308031C730FFB2EFC2EFB027B08DE
:103DFA00F3007A08F2007908F1007808F000F71F5A
:103E0A00072F082F2C2F0030F8000030F90000305F
:103E1A00FA008030FB007408F8027508031C750F5D
:103E2A00172F182FF9027608031C760F1D2F1E2F45
:103E3A00FA027708031C770F232F242FFB027B0833
:103E4A00F7007A08F6007908F5007808F40080305F
:103E5A00F3068030F70677087302031D3E2F7608B3
:103E6A007202031D3E2F75087102031D3E2F74084E
:103E7A0070020318412F422F442F0310452F0314B9
:103E8A000800F800780803194B2F4C2F602FF31FF6
:103E9A004F2F502F602F7009FA007109FB00720929
:103EAA00FC007309FD00FA0A0319FB0A0319FC0A4C
:103EBA000319FD0A682F7308FD007208FC007108D7
:103ECA00FB007008FA007308720471047004031D81
:103EDA006F2F702F792F0030F3000030F20000307E
:103EEA00F1000030F000FF2F9630F4007408F9005A
:103EFA008B2F0130F4007408F90701300310FD0C10
:103F0A00FC0CFB0CFA0CFF3E031D832FFE307D05D3
:103F1A00031D902F912F7E2FAD2F0130F4007408CE
:103F2A00F9070130FA07003003180130FB070030A7
:103F3A0003180130FC07003003180130FD07013077
:103F4A000310FD0CFC0CFB0CFA0CFF3E031DA52F05
:103F5A00FF307D05031DB22FB32F922FBF2F0130E3
:103F6A00F9020130F4000310FA0DFB0DFC0DFD0DF2
:103F7A00F40BB82FFC1BC22FC32FC92F02307902B2
:103F8A000318C82FC92FB42F7918CC2FCD2FD52FAE
:103F9A00FF30FA05FF30FB057F30FC05FF30FD05D9
:103FAA000310F90C7908F400F501F601F70118304D
:103FBA000310F40DF50DF60DF70DFF3E031DDD2F71
:103FCA007408FA047508FB047608FC047708FD04F3
:103FDA0078080319F12FF22FF72FF31FF52FF62F79
:103FEA00F72FFD177D08F3007C08F2007B08F1002B
:063FFA007A08F000080047
:02400E003A3F37
:00000001FF
